:020000040800F2
:100000002808002031020008390200083B020008DD
:100010003D0200083F020008410200080000000005
:100020000000000000000000000000004302000883
:1000300045020008000000004702000849020008CD
:100040004B0200084B0200084B0200082D28000854
:100050004B0200084B0200084B0200084B0200084C
:100060004B0200084B0200084B0200084B0200083C
:100070004B0200084B0200084B0200084B0200082C
:100080004B0200084B0200084B0200084B0200081C
:100090004B0200084B0200084B0200084B0200080C
:1000A0004B0200084B0200084B0200084B020008FC
:1000B0004B0200084B0200084B0200084B020008EC
:1000C0004B0200084B0200084B0200084B020008DC
:1000D0004B020008312F00084B0200084B020008B9
:1000E0004B020008112300084B0200084B020008D5
:1000F0004B0200084B0200084B0200084B020008AC
:100100004B0200084B0200084B0200084B0200089B
:100110004B0200084B0200084B0200084B0200088B
:100120004B0200084B0200084B0200084B0200087B
:100130004B0200084B0200084B0200084B0200086B
:100140004B0200084B0200084B0200084B0200085B
:100150004B0200084B0200084B0200084B0200084B
:100160004B0200084B0200084B0200084B0200083B
:100170004B0200084B0200084B0200084B0200082B
:100180004B0200084B02000800F002F800F041F8B2
:100190000AA090E8000C82448344AAF10107DA45E2
:1001A00001D100F036F8AFF2090EBAE80F0013F0F3
:1001B000010F18BFFB1A43F0010318478CC002005F
:1001C000ACC00200103A24BF78C878C1FAD85207F0
:1001D00024BF30C830C144BF04680C6070470000C1
:1001E0000023002400250026103A28BF78C1FBD840
:1001F000520728BF30C148BF0B607047642900F028
:100200008180002070471FB504F09AFF1FBD10B514
:1002100010BD00F0F3F91146FFF7F5FF04F0AAF95D
:1002200000F011FA03B4FFF7F2FF03BC03F08BFCFC
:100230000948804709480047FEE7FEE7FEE7FEE77A
:10024000FEE7FEE7FEE7FEE7FEE7FEE704480549B6
:10025000054A064B70470000412B00088901000841
:10026000280200202808002028040020280400205C
:10027000704700000FB4044910B503AA029800F0BB
:100280009FF910BC5DF814FB540000200FB41CB59E
:10029000074B06AA7B4469460090059800F077F961
:1002A0000020694600F086F91CBC5DF814FB0000D4
:1002B0001D03000070B5044685690068C10601D5BC
:1002C000302600E02026C00707D070BDD4E9012108
:1002D00030469047206A401C20626D1EF6D570BDE6
:1002E00070B5044685690078C00707D170BDD4E9B0
:1002F000012120209047206A401C20626D1EF6D507
:1003000070BD00002DE9F0410646002410687529F3
:10031000314616A510D0AFF30080002802DA404223
:1003200013A507E031688A0701D512A502E0490745
:1003300004D511A5012401E0AFF3008000210A22B9
:1003400006F1240709E0B0FBF2FCB0FBF2F302FB7C
:100350001C00303078541846491C0028F3D123463D
:100360002A463046BDE8F04100F0B3B80000000076
:100370002D0000002B000000200000002DE9F05FA0
:10038000894604464FF0000ADFF824B1FB44C0F868
:1003900020A02046E168884700287DD0252806D087
:1003A000D4E901219047206A401C2062F1E7002532
:1003B0005F462046E16888472028064607DB312E45
:1003C00005D2B81910F8200C08B10543F1E7A807C9
:1003D00001D525F00405C4F81CA00027C4F818A016
:1003E0002A2E09D0304603F0A7FB38B304EB870868
:1003F000303EC8F8186019E059F8041B204604EB99
:1004000087029161E1688847012F064618D1E069AB
:10041000002820DA25F020051DE0D8F8180000EBB0
:10042000800006EB40003038C8F818002046E1682C
:100430008847064603F080FB0028EED1012F0AD042
:100440002E2E08D12046E16888477F1C0646022FE1
:1004500045F02005C4DBA069002803DA404245F0DE
:100460000105A061E80701D025F01005A6B1A6F1AD
:100470004100192802D8203645F400654A46314625
:10048000204625604D46FFF7B9FE60B1012807D030
:10049000ED1D25F0070000E007E000F1080978E70E
:1004A00005F1040975E730467AE7206ABDE8F09F58
:1004B00082BD0200704770477047704710B500F06A
:1004C00091F8006810BD10B5044600F08BF8046088
:1004D00010BD2DE9F0470D4699469246044600F1BD
:1004E00024080168880604D5E06921F01001216024
:1004F00000E00120A84201DD471B00E00027A169C0
:100500007A1902EB0900081AA0612078C00602D40B
:100510002046FFF7CFFE002608E0D4E901211AF8B3
:1005200006009047206A401C761C20624E45F4DB92
:100530002078C0060AD52046FFF7BCFE06E0D4E9C5
:10054000012130209047206A401C2062381EA7F10C
:100550000107F4DC07E0D4E9012118F80500904711
:10056000206A401C2062281EA5F10105F3DC20460C
:10057000FFF7B6FE2078000602D50220BDE8F0871E
:100580000120FBE701694A1C02610878704700B549
:100590008FB0CDE901310021059105497944CDE9BC
:1005A000031011466846FFF7E9FE0FB000BD0000DA
:1005B000E5FFFFFF0A6802F8010B0A6070470000C0
:1005C000074B70B50D467B44FFF7E1FF0446284614
:1005D00000F00CF810B14FF0FF3070BD204670BD38
:1005E0008F3F000000487047C8010020007B00F0EA
:1005F0008000704700487047C80100207546FFF72B
:10060000F9FFAE4605006946534620F007008546CF
:1006100018B020B5FFF71AFEBDE820404FF00006E5
:100620004FF000074FF000084FF0000B21F00701DA
:10063000AC46ACE8C009ACE8C009ACE8C009ACE81D
:10064000C0098D4670470446AFF300802046FFF78F
:10065000E9FD000030B54FF480446D4D2C80A410AE
:100660002C80E400AD1E2C8040F22A24694D2C60C1
:100670004FF40054664D2C802C806400AD1E2C80FD
:10068000AD1C2C80A410AD1E2C80E4002C80A41185
:1006900044EA10245F4D2C604FF400545C4D2C80D4
:1006A000AD1E2C8064002C80AD1C2C80A410AD1ECF
:1006B0002C80E4002C80C4B244F40074554D2C60AE
:1006C0004FF40054524D2C80AD1E2C8064002C80C1
:1006D000AD1C2C80A410AD1E2C80E4002C80A41135
:1006E00044EA11244B4D2C604FF40054484D2C80AB
:1006F000AD1E2C8064002C80AD1C2C80A410AD1E7F
:100700002C80E4002C80CCB244F40074414D2C6069
:100710004FF400543E4D2C80AD1E2C8064002C8084
:10072000AD1C2C80A4102C80E400AD1E2C8040F267
:100730002B24384D2C604FF40054354D2C802C80E8
:100740006400AD1E2C80AD1C2C80A410AD1E2C802E
:10075000E4002C80A41144EA12242E4D2C604FF4A6
:1007600000542B4D2C80AD1E2C8064002C80AD1CC1
:100770002C80A410AD1E2C80E4002C80D4B244F454
:100780000074244D2C604FF40054214D2C80AD1E7C
:100790002C8064002C80AD1C2C80A410AD1E2C80FD
:1007A000E4002C80A41144EA13241A4D2C604FF469
:1007B0000054174D2C80AD1E2C8064002C80AD1C85
:1007C0002C80A410AD1E2C80E4002C80DCB244F4FC
:1007D0000074104D2C604FF400540D4D2C80AD1E54
:1007E0002C8064002C80AD1C2C80A4102C80E40094
:1007F000AD1E2C804FF40B74064D2C604FF400544A
:10080000034D2C802C806400AD1E2C8030BD000078
:100810001A0402401408024070B52D240BE03C2558
:1008200006E0A9B2A0B24FF6FF7200F0B9FC6D1C51
:10083000D72DF6DB641CDC2CF1DB70BD10B5002479
:100840001448006820F440201249086008460068F7
:10085000086004E0601CC4B2012003F037FC0E48BD
:10086000006808B1C82CF5DBC82C01DB012010BDE5
:10087000002404E0601CC4B2012003F027FC0648F9
:10088000006808B9F02CF5DBF02C01DB0120EEE765
:100890000020ECE700040240248240422DE9F041B0
:1008A0002DED048B00F0C4F800F0A0F8FFF7C6FFB0
:1008B000CC2000F0C9F8BE2000F0C6F800F084F8A3
:1008C000074600F081F80446072C05DDE043C4B27A
:1008D000F843C7B2002600E001262546280205B2EB
:1008E000E81905B2284604F00CFA41EC190B9FED0B
:1008F0000A0B53EC102B04F02FFA41EC180B04F008
:10090000A3F905B226B12846BDEC048BBDE8F08101
:10091000684200B2F8E70000000000000000E43F79
:100920001CB50121022001F0F5FB4FF4007000908E
:1009300001208DF8040000208DF8060002208DF8BB
:10094000050001208DF807006946044800F0EEF923
:1009500000F04CF8FFF772FF1CBD000000040240DD
:1009600010B51648006820F4402014490860084675
:10097000006840F4802008600020114908600220CF
:1009800003F0A4FB01200F49C1F8A4020B48006842
:1009900020F44020094908600846006808600C20DF
:1009A00003F094FB06488038006808B1012400E099
:1009B0000024322003F08AFB204610BD00040240D0
:1009C000A48240420080404270B50026012508E024
:1009D000FFF7C6FF0446E00140EA6600C6B2681CA5
:1009E000C5B2082DF4DD304670BD000010B50D48CD
:1009F000006820F440200B4908600846006840F475
:100A00008020086000200849086040F2EE2003F0D2
:100A10005DFB01200549C1F8A4020F2003F056FB3D
:100A200010BD000000040240A48240420080404209
:100A300010B5FFF7DBFFFFF701FFCC2000F004F853
:100A4000442000F001F810BD70B504461848006855
:100A500020F44020164908600846006840F48020D1
:100A60000860012520E004F0010664106EB100204A
:100A700010490860022003F029FB01200E49C1F84B
:100A8000A4023C2003F022FB0CE00020094908608E
:100A90003C2003F01BFB01200749C1F8A4020220FF
:100AA00003F014FB681CC5B2082DDCDD70BD00002E
:100AB00000040240A4824042008040422DE9F047F9
:100AC00036480088A0F1F00A3448008800F1F009A7
:100AD00032484088A0F5A0783048408800F5A077DB
:100AE00007EBD77C4FEA6C0308EBD87C4FEA6C022B
:100AF00009EBD97C4FEA6C010AEBDA7C4FEA6C0017
:100B0000FFF7A8FD002543E000243CE0C5EB0510FD
:100B100004EB4010401C2249095CC5EB051004EBB6
:100B200040101F4A105C01EB002086B2641C4FF499
:100B300080401C4908808010891E0880C000088001
:100B4000801140EA2620184908604FF400501549EA
:100B50000880891E088040000880891C0880801059
:100B6000891E0880C0000880F0B240F400700E4971
:100B700008604FF400500B490880891E088040002F
:100B80000880601C84B2B4F5F07FBFDB681C85B2BE
:100B9000B5F5A07FB8DBBDE8F0870000B801002004
:100BA0000A6900081A0402401408024038B53C23C0
:100BB0002822DC21104600F013FADC231A461946DD
:100BC000282000F00DFA002018236322282100902D
:100BD0001E2001F0B7F8002018237422BE210090D7
:100BE000DC2001F0AFF8102001230022E121009069
:100BF000282001F037F901241FE0C4EB0411282359
:100C000003EB41018AB2C4EB041103EB410188B24A
:100C1000D723DC2100F0E4F9102004EB84014A0022
:100C2000C4EB0411282303EB41010839009088B27A
:100C30000223E12101F016F9641C062CDDDD0124FC
:100C400021E0C4EB041000EB4000C0F1DC0083B2F3
:100C5000C4EB041000EB4000C0F1DC0081B22D2297
:100C6000282000F0BDF91020C4EB04120090C4EB62
:100C7000041000EB4000C0F1D20081B20223142026
:100C800001F0F0F8641C032CDBDD38BD014908607D
:100C900070470000143C0140002123498279002A5A
:100CA0003AD00A46126803689A430B461A600A1D36
:100CB000126803689A430B1D1A60027911440A688E
:100CC00003681A430A60184A0832126803689A4394
:100CD000154B08331A601A1D126803689A43124BA9
:100CE0000C331A604279102A0ED11A1F1268036859
:100CF0001A430D4B08331A601A1D126803681A4311
:100D0000094B0C331A600DE00749427911440A6817
:100D100003681A430A6005E0027911440A6803680F
:100D20009A430A6070470000003C0140F0B50A4653
:100D300000210023002400BF3DE0012505FA01F356
:100D4000156805EA03049C4234D105684F00032668
:100D5000BE40B543056015794E00B5400668354381
:100D600005601579012D02D01579022D16D18568FF
:100D70004F000326BE40B543856055794E00B5400F
:100D8000866835438560456801268E40B5434560D9
:100D9000456896798E40B6B235434560C5684F00C8
:100DA0000326BE40B543C560D5794E00B540C66840
:100DB0003543C560491C1029BFD3F0BDF0B50023F1
:100DC00000244D07ED0E02FA05F3CE1000F12005C8
:100DD00055F826504E07F70E0F26BE40B543CF10EC
:100DE00000F1200646F82750CE1000F1200555F8F6
:100DF000265045EA0304CE1000F1200545F82640B0
:100E0000F0BD00001CB50121052001F083F94FF46D
:100E1000E050009000208DF8040003208DF80500BC
:100E200001208DF8070069460948FFF77FFF4FF45E
:100E30000040009000208DF8040003208DF805008C
:100E400001208DF8070069460248FFF76FFF1CBDBF
:100E5000000802400000024010B5044614B1012011
:100E6000224908702148007848B32148006850B1F1
:100E70002048006838B11E480838006818B11C487E
:100E8000001F0068D8B90A2003F004F900201749B0
:100E900008701748006808B9012010BD154800689F
:100EA00008B90220F9E712480838006808B9032099
:100EB000F3E70F48001F0068A8B90420EDE70C48CD
:100EC000006801280FD10B48006801280BD10848A1
:100ED00008380068012806D10548001F006801286D
:100EE00001D1024908700020D7E7000088000020E7
:100EF000300241423C02404230B5044600254FF4E6
:100F0000A0730022F0211046FFF7A4FB00BF2AE0E7
:100F10004FF48040164908808010891E0880C00068
:100F20000880801140EA2420124908604FF40050E4
:100F30000F490880891E088040000880891C0880AD
:100F40008010891E0880C0000880E0B240F4007064
:100F5000084908604FF4005005490880891E088040
:100F6000400008806D1CB5F5963FD1D330BD000020
:100F70001A040240140802404FF4804009490880D6
:100F800080100880C000891E08804FF40A7006494E
:100F900008604FF400500349088008804000891E13
:100FA000088070471A040240140802404FF4804041
:100FB0000949088080100880C000891E088040F21E
:100FC0002920064908604FF4005003490880088032
:100FD0004000891E088070471A040240140802402D
:100FE0002DE9FF4F84B081468A460020039002908D
:100FF0000698A0EB09050798A0EB0A06CDF8049027
:10100000CDF800A0002D01DD012705E00DB9002776
:1010100002E04FF0FF376D42002E02DD4FF0010875
:1010200006E016B94FF0000802E04FF0FF387642B4
:10103000B54201DD2C4600E034464FF0000B21E0C4
:10104000009A91B2019A90B200F022F803982844D5
:1010500003900298304402900398A04205DD039863
:10106000001B03900198384401900298A04205DDCE
:101070000298001B02900098404400900BF1010080
:101080001FFA80FB601C8345DADD08B0BDE8F08FF5
:1010900030B504460D462946204600F0C3FD4FF406
:1010A0008040164908808010891E0880C000088092
:1010B00013480088491541EA2020124908604FF47E
:1010C00000500E490880891E088040000880891C55
:1010D00008808010891E0880C000088008480078B9
:1010E00040F40070074908604FF40050034908803D
:1010F000891E08804000088030BD00001A040240AC
:101100005A000020140802402DE9F04306460F461D
:101110009046002445460320A0EB48093CE07A1B9A
:1011200091B2321990B2FFF7B3FF3A1B91B2721924
:1011300090B2FFF7ADFF3A1991B2721990B2FFF772
:10114000A7FF7A1991B2321990B2FFF7A1FF7A196D
:1011500091B2321B90B2FFF79BFF3A1991B2721B0A
:1011600090B2FFF795FF7A1B91B2321B90B2FFF756
:101170008FFF3A1B91B2721B90B2FFF789FF641C7C
:10118000B9F1000F03DAA000801D814404E0601B68
:1011900080000A3081446D1EAC42C0DDBDE8F083A2
:1011A00070B505460E4614463146284600F03AFD15
:1011B0004FF48040144908808010891E0880C000C8
:1011C0000880801140EA2420104908604FF4005044
:1011D0000D490880891E088040000880891C08800D
:1011E0008010891E0880C0000880E0B240F40070C2
:1011F000064908604FF4005003490880891E0880A2
:101200004000088070BD00001A040240140802402B
:101210001CB50121862000F07DFF012000908DF893
:10122000040000208DF8060003208DF80500012041
:101230008DF807006946FE48FFF778FD4FF47040CF
:10124000009001208DF8040000208DF80600032096
:101250008DF8050001208DF807006946F548FFF775
:1012600065FD40F2FF20009001208DF80400002071
:101270008DF8060003208DF8050001208DF8070089
:101280006946ED48FFF752FD0120E9491A3108800F
:10129000642002F0FFFE0120E54918310880F020AB
:1012A000E64908804FF4A07048802A2048812B200E
:1012B00088812C200881782002F0ECFE4FF48040D9
:1012C000DC491A31088080100880C000891E08801F
:1012D00040F21120D849143108604FF40050D5492C
:1012E0001A31088008804000891E0880782002F0AA
:1012F000D1FE4FF48040CF491A3108808010088019
:10130000C000891E088040F23620CB4914310860A5
:101310004FF40050C7491A31088008804000891EE8
:101320000880891C08808010891E0880C000088001
:101330008011C149143108600001BE491A3108808A
:10134000891E088040000880891C08808010088061
:10135000C000891E088040F23A20B7491431086065
:101360004FF40050B3491A31088008804000891EAC
:101370000880891C08808010891E0880C0000880B1
:1013800040F25520AC49143108604FF40050A9498F
:101390001A310880891E088040000880891C088056
:1013A00080100880C000891E088040F22120A249D8
:1013B000143108604FF400509E491A3108800880AB
:1013C0004000891E0880891C088080100880C000A9
:1013D000891E088040F2B2209749143108604FF40A
:1013E000005094491A31088008804000891E088006
:1013F000891C08808010891E0880C000088040F287
:1014000005208D49143108604FF4005089491A3184
:101410000880891E088040000880891C0880801090
:10142000891E0880C000088040F2052082491431DE
:1014300008604FF400507F491A310880891E0880E7
:1014400040000880891C08808010891E0880C00028
:1014500008808011784914310860000175491A31FB
:101460000880891E088040000880891C0880801040
:10147000891E0880C000088040F233206E49143174
:1014800008604FF400506B491A310880891E0880AB
:1014900040000880891C08808010891E0880C000D8
:1014A000088040F233206449143108604FF4005042
:1014B00060491A310880891E088040000880891C14
:1014C000088080100880C000891E088040F2B72084
:1014D0005949143108604FF4005056491A310880B8
:1014E00008804000891E0880891C08808010891EA1
:1014F0000880C000088040F275204F491431086010
:101500004FF400504B491A310880891E0880400072
:101510000880891C088080100880C000891E08800F
:1015200040F2BB204449143108604FF40050414957
:101530001A31088008804000891E0880891C0880B4
:101540008010891E0880C000088040F222203A499D
:10155000143108604FF4005036491A310880891E52
:10156000088040000880891C088080100880C00026
:10157000891E08804FF430702F49143108604FF4F1
:1015800000502C491A31088008804000891E0880CC
:10159000891C08808010891E0880C00008804FF4D4
:1015A0000B702549143108604FF4005021491A315D
:1015B0000880891E088040000880891C08808010EF
:1015C0000880C000891E088040F2C2201A491431E8
:1015D00008604FF4005017491A3108800880400015
:1015E000891E0880891C08808010891E0880C00020
:1015F000088040F201201049143108604FF4005077
:101600000C491A310880891E088040000880891C16
:10161000088080100880C000891E088040F2C32026
:101620000549143108604FF4005002491A3107E0AF
:10163000001C02400004024000080240B8010020E3
:10164000088008804000891E0880891C088080105E
:10165000891E0880C000088040F21320FE490860FF
:101660004FF40050FD490880891E08804000088022
:10167000891C088080100880C000891E08804FF4F3
:101680003170F54908604FF40050F4490880088033
:101690004000891E0880891C08808010891E0880EF
:1016A000C00008804FF40870EB4908604FF4005008
:1016B000EA490880891E088040000880891C08804B
:1016C00080100880C000891E088040F2C620E249D0
:1016D00008604FF40050E149088008804000891EEE
:1016E0000880891C08808010891E0880C00008803E
:1016F00040F20920D84908604FF40050D7490880CB
:10170000891E088040000880891C0880801008809D
:10171000C000891E08804FF43470CF4908604FF430
:101720000050CE49088008804000891E0880891C2E
:1017300008808010891E0880C00008804FF429703E
:10174000C54908604FF40050C4490880891E0880CC
:1017500040000880891C08808010891E0880C00015
:10176000088040F2A120BC4908604FF40050BB49FA
:101770000880891E088040000880891C088080102D
:101780000880C000891E08804FF43870B249086094
:101790004FF40050B149088008804000891E08803D
:1017A000891C08808010891E0880C00008804FF4C2
:1017B0003470A94908604FF40050A8490880891E78
:1017C000088040000880891C08808010891E0880DD
:1017D000C000088040F205209F4908604FF4005087
:1017E0009E490880891E088040000880891C088066
:1017F0008010891E0880C000088040F20A209649A7
:1018000008604FF4005095490880891E0880400008
:101810000880891C08808010891E0880C00008800C
:1018200040F209208C4908604FF400508B49088031
:10183000891E088040000880891C08808010891E4D
:101840000880C00008804FF40270834908604FF49C
:10185000005082490880891E088040000880891C49
:1018600008808010891E0880C000088040F2052092
:10187000794908604FF4005078490880891E088033
:1018800040000880891C08808010891E0880C000E4
:10189000088040F22E20704908604FF400506F49D4
:1018A0000880891E088040000880891C08808010FC
:1018B000891E0880C00008804FF4117066490860D6
:1018C0004FF4005065490880891E08804000088058
:1018D000891C08808010891E0880C000088040F2A2
:1018E00045205D4908604FF400505C490880891E1E
:1018F000088040000880891C08808010891E0880AC
:10190000C000088040F20F20534908604FF4005097
:1019100052490880891E088040000880891C088080
:101920008010891E0880C000088040F217204A49B4
:1019300008604FF4005049490880891E0880400023
:101940000880891C08808010891E0880C0000880DB
:1019500040F21620404908604FF400503F4908808B
:10196000891E088040000880891C08808010891E1C
:101970000880C000088040F22B20374908604FF4EF
:10198000005036490880891E088040000880891C64
:1019900008808010891E0880C000088040F2332033
:1019A0002D4908604FF400502C490880891E08809A
:1019B00040000880891C088080100880C000891EB3
:1019C000088040F2E120244908604FF40050234988
:1019D000088008804000891E0880891C08808010CB
:1019E000891E0880C00008804FF434701A490860CE
:1019F0004FF4005019490880891E08804000088073
:101A0000891C08808010891E0880C000088040F270
:101A10000520114908604FF4005010490880891EC4
:101A2000088040000880891C08808010891E08807A
:101A3000C000088040F20A20074908604FF40050B7
:101A400006490880891E088040000880891C08809B
:101A50008010891E088003E0140802401A04024026
:101A6000C000088040F20920654908604FF400502A
:101A700064490880891E088040000880891C08800D
:101A80008010891E0880C00008804FF402705C49F5
:101A900008604FF400505B490880891E08804000B0
:101AA0000880891C08808010891E0880C00008807A
:101AB00040F20520524908604FF400505149088017
:101AC000891E088040000880891C08808010891EBB
:101AD0000880C000088040F22E20494908604FF479
:101AE000005048490880891E088040000880891CF1
:101AF00008808010891E0880C000088040F24320C2
:101B00003F4908604FF400503E490880891E088014
:101B100040000880891C08808010891E0880C00051
:101B2000088040F24520364908604FF4005035499E
:101B30000880891E088040000880891C0880801069
:101B4000891E0880C000088040F20F202C490860E0
:101B50004FF400502B490880891E088040000880FF
:101B6000891C08808010891E0880C000088040F20F
:101B70001620234908604FF4005022490880891E2E
:101B8000088040000880891C08808010891E088019
:101B9000C000088040F21620194908604FF4005038
:101BA00018490880891E088040000880891C088028
:101BB0008010891E0880C000088040F22B20104948
:101BC00008604FF400500F490880891E08804000CB
:101BD0000880891C08808010891E0880C000088049
:101BE00040F23320064908604FF400500549088050
:101BF000891E0880400008800020034908601CBD41
:101C0000140802401A040240A402414210B50246E0
:101C1000012000E050430B00A1F10104E1B2F9D131
:101C200010BD00004FF48042444B1A8092101A807D
:101C3000D2009B1E1A8040F22A22414B1A604FF4B8
:101C400000523E4B1A801A8052009B1E1A809B1C29
:101C50001A8092109B1E1A80D2001A80921142EABA
:101C60002022374B1A604FF40052344B1A809B1ECF
:101C70001A8052001A809B1C1A8092109B1E1A8098
:101C8000D2001A80C2B242F400722D4B1A604FF497
:101C900000522A4B1A809B1E1A8052001A809B1CED
:101CA0001A8092101A80D2009B1E1A8040F22B22BA
:101CB000234B1A604FF40052204B1A801A805200B6
:101CC0009B1E1A809B1C1A8092109B1E1A80D200A9
:101CD0001A80921142EA2122194B1A604FF40052E5
:101CE000164B1A809B1E1A8052001A809B1C1A8069
:101CF00092109B1E1A80D2001A80CAB242F400725F
:101D00000F4B1A604FF400520C4B1A809B1E1A8026
:101D100052001A809B1C1A8092101A80D2009B1EBF
:101D20001A804FF40B72064B1A604FF40052034BAB
:101D30001A801A8052009B1E1A8070471A040240B3
:101D4000140802402DE9F84F80460E4617461C46FF
:101D5000B3462046E31704EB5373DB1021464FEAEA
:101D6000E47C04EB5C7C4FEAEC0CA4EBCC0CBCF107
:101D7000000F02D04FF0010C01E04FF0000C634463
:101D8000224604EBD27C4FEA6C0C03FB0CF3DBB273
:101D90000093A7F12000C7B2002554E00C2C07D116
:101DA00007EB47002A4901EB800010F8059013E08B
:101DB000102C05D1274800EB071010F805900BE018
:101DC000182C07D107EBC700234901EB800010F85E
:101DD000059001E0BDE8F88F4FF0000A2DE009F012
:101DE000800030B11D48028831464046FFF7D8F9DF
:101DF00007E00A9828B91A48028831464046FFF79A
:101E0000CFF94FEA49604FEA1069701C86B2B6F507
:101E1000A07F00DBDEE7A6EB0B00A04209D15E4607
:101E200008F101001FFA80F8B8F1F00F00DBD1E7EC
:101E300006E00AF1010000F0FF0ABAF1080FCEDB5C
:101E400000BF681CC5B200988542A7DB00BFC1E790
:101E50004A510008BE550008AE5B00085A00002039
:101E60005C0000202DE9FF4F81B0074691461E46D9
:101E70000E9D4FF0000A002439E0301B401EC1B215
:101E80000A20FFF7C3FEB9FBF0F00A21B0FBF1F224
:101E900001FB1208BAF1000F16D1701EA04213DD2B
:101EA000B8F1000F0ED10020AB4605EBDB714910F5
:101EB00001FB0471009088B22B4620220299FFF7A3
:101EC00041FF12E04FF0010A0020AB4605EBDB7149
:101ED000491001FB0471009088B208F13001CAB2C8
:101EE0002B460299FFF72EFF00BF601CC4B2B4421C
:101EF000C3DB05B0BDE8F08F2DE9F84704460D4679
:101F000090469946DDE9096704F0FF0A08EB0400F2
:101F10001FFA80F809EB05001FFA80F916E0444526
:101F200002DB5446A81985B24D4500DB14E00020C1
:101F300000903A78334629462046FFF703FF3046A3
:101F400006EBD07104EB61018CB27F1C38787E28DF
:101F500002DC38782028E2DA00BFBDE8F8873EB519
:101F600041F6FF740121080700F0E4F8012000F0B9
:101F7000CBF8002000F014FB45F25101884231D02B
:101F8000012000F08BF904E0601C84B20A2002F00A
:101F900081F8412000F062F90028F5D00CB9012049
:101FA0003EBD4FF4807000F095F9012000F08CF9EF
:101FB0007F200190FF20029000200090684600F0F2
:101FC000BDFA00231A463B210A2000F0E5FB072357
:101FD0001E220C21122000F0CDFB45F25001002002
:101FE00000F0B8FC0020DBE770B5002100230F22D1
:101FF000C4781CB3174C246804F4E064C4F5E064AE
:10200000C4F30721C1F10404E3B20A4144789C40BF
:10201000E1B28478144021430C07210E0E4C057860
:102020006155047804F01F050124AC4005786D115A
:10203000AD0005F1E025C5F8004109E0047804F0A1
:102040001F050124AC40054D0678761145F8264061
:1020500070BD00000CED00E000E400E080E100E075
:1020600002490143024A1160704700000000FA056E
:102070000CED00E030B58BB004460D460121022086
:1020800000F058F80121022000F044F80222052156
:102090001B48FEF793FE2020099002208DF82800AF
:1020A00003208DF8290000208DF82A0001208DF8EA
:1020B0002B0009A91248FEF739FEA8B2ADF81800A6
:1020C0000020ADF81A000794ADF8200006A90D48CD
:1020D00000F0D8FD6020ADF804000120ADF8060046
:1020E0000020ADF810004B20039001A9054800F036
:1020F00067FD0821034800F0B5FD0BB030BD0000BE
:1021000000040240000400400149086270470000DA
:1021100000000E4229B1064A12680243044B1A60BD
:1021200004E0034A12688243014B1A6070470000C2
:102130003038024029B1064A12680243044B1A6043
:1021400004E0034A12688243014B1A6070470000A2
:102150004038024029B1064A12680243044B1A6013
:1021600004E0034A12688243014B1A607047000082
:1021700044380240F0B50021002200240225002648
:102180000223324F3F6807F00C0121B1042905D02A
:10219000082937D105E02E4F076036E02D4F076044
:1021A00033E02A4F3F1F3F68C7F38056274F3F1F3A
:1021B0003F6807F03F036EB1264FB7FBF3F7DFF838
:1021C0008CC0ACF1040CDCF800C0CCF3881C07FB1D
:1021D0000CF40CE01E4FB7FBF3F7DFF870C0ACF166
:1021E000040CDCF800C0CCF3881C07FB0CF4174F80
:1021F0003F1F3F68C7F301477F1C7D00B4FBF5F725
:10220000076002E0124F076000BF00BF0F4F3F683A
:1022100007F0F0010909104F7A5C0768D740476062
:102220000A4F3F6807F4E051890A0B4F7A5C476810
:10223000D7408760054F3F6807F46041490B064F60
:102240007A5C4768D740C760F0BD0000083802409C
:102250000024F40000127A004000002010B501466E
:102260000022002300204A11012A02D10A4C2368CF
:1022700008E0022A03D1084C7034236802E0064CBF
:102280007434236801F01F02012494401C400CB1F7
:10229000012000E0002010BD003802400021094A62
:1022A00011701170012802D0042808D103E0012127
:1022B000044A117004E00521024A117000E000BFD9
:1022C00000BF704770380240014908607047000045
:1022D0003C0E4742002100F44072B2F5407F08D125
:1022E000094A116821F4F811084A02401143064ACC
:1022F0001160054A68321268C0F30B031A43024B9F
:1023000068331A607047000008380240FFFCFF0F76
:1023100010B54FF4807000F0A3F8012805D1000239
:1023200000F028F803A0FDF7A5FF4FF40030FEF7FA
:10233000ADFC10BD414C41524D2041210D0A000021
:10234000014600BF080900EB8000420001F00F00C9
:102350001044C0B270470146002204E0501CC2B2D3
:10236000A1F10A00C1B20A29F8DA100741EA1060A7
:102370007047000081B241F08001044A126802F007
:10238000800262EA0101014A116070470C28004096
:10239000002101098AB242F08002044B1B6803F05D
:1023A000800363EA0202014B1A6070470C28004068
:1023B00008B50022009200200021104A126802F0A5
:1023C0004002CAB9421E0D4B1A6000BF0B4A126888
:1023D00002F04001009A521C0092009AB2F5803F30
:1023E00001D00029F2D0054A126802F040020AB179
:1023F000012002E0002000E0012008BD0C28004080
:102400000348006820F08000014908607047000020
:102410000C28004070B506460C4600250E480068A2
:102420000E4900EA0105280CE070C5F30420607035
:1024300005F03F00A070C5F3423020705EB9E0782F
:10244000FFF77EFFE0706078FFF77AFF6070A0789A
:10245000FFF776FFA07070BD042800403FFFFF002B
:1024600010B5014600200022054B1B68054C03EA0D
:10247000040202EA01030BB1012000E0002010BDBC
:102480000C2800407F3F010070B506460C46002531
:102490000F4800680F4900EA0105C5F305402070A8
:1024A000C5F30620607005F07F00A07005F4800081
:1024B000000CE0705EB92078FFF742FF2070607872
:1024C000FFF73EFF6070A078FFF73AFFA07070BD85
:1024D000002800407F7F7F00CA22174B1A605322DA
:1024E0001A6091B1144A1C3A126820F004031A438E
:1024F000114B1C3B1A60104A1C32126800F0040396
:102500001A430D4B1C331A6011E00B4A1C3A126837
:1025100020F004039A43084B1C3B1A60064A1C3205
:10252000126800F004039A43034B1C331A60FF2225
:10253000014B1A60704700002428004030B5044663
:102540000025CA201549086053200860FFF730FFB6
:1025500000B91DE011481C38006820F040000F4908
:102560001C39086008460068216808430B491C397B
:1025700008600A491439A068086008460068A18804
:1025800040EA0140054914390860FFF739FF012589
:10259000FF2002490860284630BD00002428004082
:1025A00008B501460020009004480090009800EB18
:1025B000810000900098006808BD0000502800408D
:1025C0002DE9F04105460C46002600274DB96078FC
:1025D00000F01000102804D1607820F010000A30BC
:1025E000607005B908E06078FFF7AAFE0646A0789B
:1025F000FFF7A6FE064600BF55B1E07800046178FB
:1026000040EA0120A1780843217840EA413611E0F0
:10261000E078FFF7A0FE4FEA00486078FFF79BFEE6
:1026200048EA0028A078FFF796FE48EA00082078DC
:1026300048EA4036CA201249086053200860FFF774
:10264000B7FE08B9002714E00E4830400C49203985
:102650000860FFF7D5FE0A481C38006800F020002B
:1026600030B900F0F3F808B9002702E0012700E0D4
:102670000127FF20024908603846BDE8F0810000CC
:10268000242800403FFFFF002DE9F04105460C469D
:10269000002600274DB92E48006800F0400000B128
:1026A00002E00020E07000BF0DE02948006800F063
:1026B000400020B12078FFF743FE064602E00020EC
:1026C000E07000BF00BF55B120780004617840EA97
:1026D0000120A1780843E17840EA014611E0207822
:1026E000FFF739FE4FEA00486078FFF734FE48EA0A
:1026F0000028A078FFF72FFE48EA0008E07848EAB3
:102700000046CA2012491C31086053200860FFF7B8
:102710004FFE08B9002713E00E4830400C49083935
:102720000860FFF76DFE0A48006800F0200030B92D
:1027300000F08CF808B9002702E0012700E001272B
:10274000FF2003491C3108603846BDE8F0810000D5
:10275000082800407F7F7F00CA21054A116053216D
:102760001160034910390860FF21116070470000B3
:1027700024280040F8B504460D4617461E468DF83D
:1027800002708DF801508DF800608DF803406946A5
:102790000020FFF715FFF8BDF8B504460D461746B3
:1027A0001E468DF800408DF801508DF802708DF8AE
:1027B000036069460020FFF767FFF8BD7CB505465A
:1027C0000C46002000F08AF8284600F06FF82046FA
:1027D000FFF7C2FF4FF48040FFF7DAFD4FF48000AF
:1027E000FEF754FA01218803FFF776FE012000F07E
:1027F00075F84FF48000009000208DF80400082048
:102800008DF8050001208DF806006846FEF744FAB1
:102810000320054908700220487088700120C870A4
:102820000846FFF7E1FB7CBD6000002010B54FF4C7
:102830008060FFF715FE012802D18002FFF79AFDA4
:102840004FF48000FEF722FA10BD000008B5002208
:10285000009200200021CA22134B1A6053221A60F2
:10286000114A183A126822F0A0020F4B183B1A6066
:1028700000BF0D4A183A126802F02001009A521C5B
:102880000092009AB2F5003F01D00029F1D0064A2B
:10289000183A126802F020020AB1012000E000207C
:1028A000FF22014B1A6008BD24280040CA210A4AB1
:1028B00011605321116008491C39096821F0070192
:1028C000054A1C3A11601146096801431160FF2155
:1028D000014A1160704700002428004018B50146E5
:1028E0000023009300220020CA23194C23605323A5
:1028F000236049B1164B1C3B1B6843F48063144CA6
:102900001C3C236001201FE0114B1C3B1B6823F47F
:1029100080630F4C1C3C236000BF0D4B183B1B68B1
:1029200003F00402009B5B1C0093009BB3F5803F07
:1029300001D0002AF1D0064B183B1B6803F00403BA
:102940000BB9002000E00120FF23014C236018BDDB
:102950002428004008B500220092044A0092009A00
:1029600002EB80020092009A116008BD50280040DE
:10297000F8B5054600268DF800608DF801608DF8E9
:102980000250E843C0B28DF8030000F0B5F809200A
:1029900001F080FB00F0B8F8042001F07BFB4FF45D
:1029A000FA7001F093FB012425E0012720E000F0FC
:1029B000ABF84FF40C7001F089FB1DF8040000F037
:1029C000010030B100F098F840F2352001F07EFBB4
:1029D00008E000F091F8012001F05CFB40F2B22029
:1029E00001F074FB1DF8040040100DF804007F1C7A
:1029F000082FDCDD641C042CD7DD00F07DF84FF4DB
:102A00000C7001F063FB00F07FF8F8BD0CB50020FE
:102A1000019000903448006840F4803032490860EA
:102A200000BF3148006800F4003000900198401C5D
:102A30000190009818B90198B0F5A04FF1D12A483B
:102A4000006800F4003010B10120009001E0002087
:102A500000900098012846D123484030006840F09B
:102A600080502149403108602048006840F44040CF
:102A70001E4908601C48083000681B49083108607E
:102A80000846006840F4004008600846006840F4CA
:102A9000A05008601648091F0860081F006840F031
:102AA0008070091F086000BF0F48006800F00070C8
:102AB0000028F9D040F205700E4908600A48083035
:102AC000006820F0030008490831086008460068E3
:102AD00040F00200086000BF03480830006800F0C2
:102AE0000C000828F8D10CBD0038024000700040EE
:102AF00008544007003C024010B50121014800F095
:102B000053F810BD0004004010B50021014800F04A
:102B10004BF810BD00040040042808D14FF0E0211C
:102B2000096941F004014FF0E022116107E04FF024
:102B3000E021096921F004014FF0E02211617047A2
:102B400010B51548006840F4700013490860134838
:102B5000006840F001001149086000200F49083169
:102B600008600E4800680E4908400C4908600D488E
:102B7000091D0860081F006820F48020091F0860F4
:102B8000002006490C310860FFF740FF4FF000605D
:102B900001498039086010BD88ED00E0003802402E
:102BA000FFFFF6FE1030002421B1028842F001023E
:102BB000028004E002884FF6FE731A4002807047DC
:102BC00070B5002400220023058C4FF6EF763540C7
:102BD0000584028C8388048B48F6FF752C404FF6E1
:102BE000FF452C400D884FF6FF7606EA05252C435D
:102BF0004FF6DF752A408D8906EA05152A434D8870
:102C000006EA05152A43154DA84202D0144DA842E4
:102C10001DD14FF67F752A40CD894FF6FF7606EA23
:102C200005152A434FF6BF752A408D8806EA05151B
:102C30002A434FF6FF352B404FF2FF752B400D8A8C
:102C400006EA85052B434D8A06EA85052B438380DA
:102C500004838D688563028470BD0000000001401C
:102C6000000401400A460021018B4FF2FF73194016
:102C70004FF6FF7303EA0223194301837047816310
:102C80007047000000220288184B98420ED0184B63
:102C900098420BD0B0F1804F08D0164B984205D027
:102CA000154B984202D0154B984204D14FF68F73C2
:102CB0001A404B881A43124B984207D0114B984246
:102CC00004D04FF6FF431A400B891A4302804B6829
:102CD000C3620B880385054B984202D0044B98428F
:102CE00001D18B7A03860123838270470000014063
:102CF000000401400004004000080040000C0040B7
:102D000000100040001400407CB5424800680028D4
:102D10007AD041A010210B46C822CDE90010142121
:102D2000BE20FFF7E9F8FDF7B9FD3D4908800846E8
:102D3000B0F90000B0F5967F01DA012414E03848BC
:102D4000B0F90000B0F5967F07DD3548B0F9000016
:102D5000B0F5AF7F01DA022406E03148B0F9000097
:102D6000B0F5AF7F00DD03242D48B0F90000002846
:102D70000DDA002010232D22282100904620FEF796
:102D8000E1FF27480088404200B2254908802448D6
:102D9000B0F900000A2190FBF1F5102002232A4629
:102DA00014210090BE20FFF75DF81D48B0F9000027
:102DB0000A2190FBF1F201FB1205102001232A46A3
:102DC00014210090D620FFF74DF8012C04D0022CDE
:102DD00009D0032C16D10EE00C20FFF7C9FD6420AA
:102DE00001F058F90FE01820FFF7C2FD642001F050
:102DF00051F908E008E05E20FFF7BAFD642001F019
:102E000049F900E000BF00BF21210648FFF737FF66
:102E10007CBD00002800002020202E204300000060
:102E200030000020000400407FB503A90020FFF718
:102E30002BFB02A90020FFF7EDFA264800680028C6
:102E400039D09DF80E0000909DF80D309DF80C20B3
:102E500021A12648FDF71AFA244818210B46D22250
:102E6000CDE9001064211E20FFF746F89DF80A0006
:102E700000909DF809309DF80B201DA11B48FDF71F
:102E800005FA1A4818210B46D222CDE900108221FA
:102E90001E20FFF731F89DF808201BA11348FDF70D
:102EA000F5F9124818210B46D222CDE90010A021D5
:102EB0001E20FFF721F81648006850B19DF80C401D
:102EC0009DF80D509DF80E6032462946204600F0D0
:102ED0003DFE7FBD1C00002054696D653A253032EF
:102EE000643A253032643A25303264008C00002088
:102EF000446174653A3230253032642D25303264B5
:102F00002D253032640000005765656B3A2564005A
:102F10002000002010B50448006820B1FDF7CEFD68
:102F200000200249086010BD2C0000200C00002089
:102F300010B540F225511D4800F04AF810B31B4867
:102F400000F000F9C4B21A48008800F40040C8B983
:102F50001748008800F4804060B10A2C03D000209C
:102F60001349088020E01248008840F400401049CE
:102F7000088019E00D2C06D10D48008840F48040EF
:102F80000B49088010E00A480088C0F30D00094989
:102F90000C5407480088401C0549088008460088F2
:102FA000C72801DD0020088010BD0000001001408E
:102FB00058000020E400002021B1828942F4005230
:102FC000828104E082894DF6FF731A408281704746
:102FD00070B50246002400230025002040F66A1642
:102FE000B14200D100BFC1F3421501F01F03012619
:102FF00006FA03F3012D02D19689334006E0022D33
:1030000002D1168A334001E0968A33400C12012621
:1030100006FA04F41688344013B10CB1012000E024
:10302000002070BDF0B503460024002600250020D6
:1030300040F66A17B94200D100BF1846C1F34214E6
:1030400001F01F06012707FA06F5012C01D10C300B
:1030500004E0022C01D1103000E014301AB10768EE
:103060002F43076002E00768AF430760F0BD000030
:103070002DE9FF4705460E460024A14600BFA046A5
:10308000B08900B100BF2C8A24F44054F088044376
:103090002C82AC8941F20C608443B08831890843AA
:1030A000718908430443AC81AC8A24F44074B0892C
:1030B0000443AC826846FFF75DF82048854202D0A1
:1030C0001F48854202D1DDF80C9001E0DDF8089040
:1030D000A88900F4004040B109EBC90000EB0910D9
:1030E00031684900B0FBF1F707E009EBC90000EBDC
:1030F000091031688900B0FBF1F76420B7FBF0F0EC
:1031000004012009642101FB1078A88900F4004023
:1031100040B1322000EBC800B0FBF1F000F0070036
:10312000044308E0322000EB08106421B0FBF1F00A
:1031300000F00F0004432C81BDE8FF870010014020
:103140000014014001468888C0F30800704703B4AA
:1031500001984100009850EAC12018BF04204A0D90
:1031600018BF40F0010040F2FF72B2EB515F08BFA0
:1031700040F00200012808BF052002B0704700009F
:1031800010B52F499FED2C1B2DED020B84B0059837
:1031900020F000408842D8BF9DED040B2DDD294969
:1031A000884209D1049840B94FF00100FDF78BF92E
:1031B00000F0A2FC06B010BD05DB9DED040B00F095
:1031C0008FFC06B010BD68469DED040B00F0A0F822
:1031D00010F0030004BF9DED021B9DED000B0CD011
:1031E00001280ED09DED021B9DED000B022817D08B
:1031F000012000F0DDFB06B010BD00F0A5FA06B01E
:1032000010BD9DED021B9DED000B012000F0D0FBD9
:1032100051EC100B01F00CFB06B041EC100B10BD93
:1032200000F092FA51EC100B01F002FB06B041ECF9
:10323000100B10BD000000000000000000000000A6
:10324000FB21E93F0000F07F10B52F499FED2C1BBB
:103250002DED020B84B0059820F000408842DCBFC1
:1032600000209DED040B32DD2849884209D10498E5
:1032700040B94FF00100FDF726F900F03DFC06B023
:1032800010BD05DB9DED040B00F02AFC06B010BD5F
:1032900068469DED040B00F03BF810F0030011D0E0
:1032A000012818D09DED021B9DED000B02281AD0BD
:1032B00000F04AFA51EC100B01F0BAFA06B041ECFA
:1032C000100B10BD9DED021B9DED000B012000F0C9
:1032D0006FFB06B010BD9DED021B9DED000B00F0D5
:1032E00033FA06B010BD012000F062FB51EC100B68
:1032F00001F09EFA06B041EC100B10BD000000007A
:103300000000000000000000FB21E93F0000F07F0A
:103310002DE9F14F04462DED020B2DED088B8AB0FF
:103320009FEDE70B80ED020B139EE74826F000456A
:1033300085420ADC9DED120B002084ED000B0AB0E3
:10334000BDEC088B03B0BDE8F08FE0489FEDE0AB2B
:103350009FEDE1BBA84247DDE14F9FEDE39B9FED71
:10336000E48B9DED120B53EC1A2B51EC100B002E3D
:103370001CDD01F0FBFD41EC100BBD4208D053EC0D
:103380001B2B51EC100B01F0F1FDC4E900010BE027
:1033900053EC192B51EC100B01F0E8FD53EC182BFA
:1033A00001F0E4FDC4E900010120C8E701F04CFA96
:1033B00041EC100BBD4208D053EC1B2B51EC100B11
:1033C00001F042FAC4E900010BE053EC192B51EC77
:1033D000100B01F039FA53EC182B01F035FAC4E95F
:1033E00000014FF0FF30AAE7C348A84279DB9DED0A
:1033F000120B51EC100B01F0A3F841EC180B9FEDF0
:10340000C00B53EC102B01F0A7FC9FEDBF1B53EC3E
:10341000112B01F019FA01F017FC074601F071FCBD
:1034200041EC190B53EC1A2B01F096FC53EC182BC2
:1034300001F090FD41EC180B53EC1B2B51EC190BD8
:1034400001F08AFCDFF8C8A241EC100B4FEA1558D6
:103450000125FA4453EC102B51EC180B01F086FDBA
:10346000032DC4E900013DD0C1F30A5005EB45111D
:10347000A8EB00001139814234DA0AEB051BB0EEEB
:1034800048AA9BED000BF0EE68AA53EC102B51EC10
:10349000190B01F061FC41EC1B0B51EC1A0B53ECC6
:1034A0001B2B01F063FD41EC180B51EC1A0B53EC94
:1034B000182B01F05BFD53EC1B2B01F057FD9BED2E
:1034C000020B41EC1A0B53EC102B51EC190B01F0D1
:1034D00043FC53EC1A2B01F049FD41EC100B6D1C21
:1034E000B8E70EE0002EA8BF3846BFF628AF94ED2F
:1034F000000B51EC100B01F09BF9C4E9000178427C
:103500001DE7C6F3130040F4801EC6F30A50A0F274
:10351000F530471100F01F05C5F12000DDF848B077
:1035200008900020069007900520EC467949002D70
:1035300007EB0002794408BF51F8221009D051F876
:10354000223001EB8201AB404A68089922FA01F16E
:103550001943A1FB0E26A1FB0B131A449A4234BF58
:103560000123002303EB06080CEB8003D3E901A63B
:103570000E448E4234BF0121002192448A4411B18D
:10358000924502D903E0924501D2012100E00021D9
:10359000C3E901A641444CF82010011EA0F101002E
:1035A000C4DC029800F10050850F0298DDE9036742
:1035B0008000DDF8148001F0A4FB41EC1A0B3046CA
:1035C00001F0B6FB9FED541B53EC112B01F0C4FB33
:1035D00041EC1B0B384601F0ABFB9FED511B53EC4C
:1035E000112B01F0B9FB41EC180B404601F0A0FB98
:1035F0009FED4D1B53EC112B01F0AEFB41EC190B71
:1036000051EC180B53EC192B01F01EF953EC1B2B4A
:1036100001F01AF953EC1A2B01F016F9CDE9080163
:10362000002008909DED080B53EC1A2B51EC100B69
:1036300001F09CFC53EC1B2B01F098FC53EC182B75
:1036400001F094FC53EC192B01F084FC9FED381B26
:1036500053EC112B01F080FB9FED370B41EC180B65
:1036600053EC102B9DED080B51EC100B01F074FB8B
:1036700053EC182B01F0E8F89FED310B41EC180BDF
:1036800053EC102B9DED080B51EC100B01F064FB7B
:1036900053EC182B01F0D8F841EC100B139810F0F4
:1036A000004F06D06D4251EC100B01F0C1F841EC17
:1036B000100B284684ED000B41E6000000000000DE
:1036C0000000000000000000FB21E93F7CD902401F
:1036D00000004054FB21F93F3163621A61B4D03DD0
:1036E000FB21F93F000000000000601A61B4D03DEA
:1036F0007370032E8A19A33BFB213941000000009F
:1037000083C8C96D305FE43F000000000000E03F67
:10371000028D0200508C0200000000000000103EEC
:10372000000000000000103C000000000000103A03
:10373000182D4454FB21F93D3326A611460B113CAC
:1037400000000054FB21F93D10B52DED040B2DEDCB
:10375000088B82B0B0EE419AF0EE619A0B9820F09F
:1037600000449FED4BABB4F1795F11DA9DED0A0B8C
:1037700051EC100B01F068FA002801BFB0EE4A0AC4
:10378000F0EE6A0A02B0BDEC088B04BF04B010BDB5
:103790009DED0A0B53EC102B51EC100B01F0DCFAF1
:1037A00041EC180B3C480621B0EE480AF0EE680ADE
:1037B000784400F081F853EC182B51EC100B01F019
:1037C000CBFA9DED0A0B41EC1B0B53EC192B51EC82
:1037D000100B01F0C1FA41EC190B53EC1B2B51EC0F
:1037E000180B01F0B9FA53EC192B01F0BFFB9FED58
:1037F0002C0B41EC190B53EC102B51EC180B01F076
:10380000ABFA41EC100B2848844210DA53EC192B28
:1038100051EC100B01F0AAFB53EC1A2B01F09AFBB0
:1038200041EC100B02B0BDEC088B04B010BD1F487A
:10383000A042BCBF9FED1E1B8DED001B06DBA4F557
:1038400000100190002000909DED001B51EC100B2A
:1038500053EC112B01F08AFB9DED000B41EC180B92
:1038600053EC102B51EC1A0B01F080FB41EC1A0BBE
:1038700053EC192B51EC180B01F078FB53EC1A2B7D
:1038800001F068FB41EC100BCCE7000000000000E9
:10389000000000000000F03F7489020000000000FA
:1038A000000000000000E03F3333D33F0000E93F59
:1038B000000000000000D23F70B504462DED028BE1
:1038C0004D1E00EBC500B0EE408AF0EE608A90ED30
:1038D000000B35F0060017D053EC182B51EC100BF1
:1038E00001F03AFA41EC100B6D1E04EBC50090EDAF
:1038F000001B51EC100B53EC112B00F0A5FF41EC19
:10390000100B35F00600E7D1022D36D0042D1CD067
:10391000062D1CBFBDEC028B70BD53EC182B51EC77
:10392000100B01F019FA94ED0A1B53EC112B00F067
:103930008BFF53EC182B01F00FFA94ED081B53EC9E
:10394000112B00F081FF41EC100B53EC182B51ECC4
:10395000100B01F001FA94ED061B53EC112B00F053
:1039600073FF53EC182B01F0F7F994ED040B53ECB3
:10397000102B00F069FF41EC100B53EC182B51ECAD
:10398000100B01F0E9F994ED021B53EC112B00F040
:103990005BFF53EC182B01F0DFF994ED001B53ECA7
:1039A000112B00F051FFBDEC028B41EC100B70BDF0
:1039B00031B504462DED040B2DED0A8BB0EE41BA66
:1039C000F0EE61BA0B989DED0A0B20F00040B0F1CB
:1039D000795F0DDA51EC100BFFF7B9FB042808BF33
:1039E00000F09AF89DED0A0BBDEC0A8B05B030BDD6
:1039F00053EC102B51EC100B01F0AEF941EC180B0D
:103A00009DED0A0B53EC182B51EC100B01F0A4F9AF
:103A100041EC190B2C48B0EE480AF0EE680A05217B
:103A20007844FFF749FF9FED2ACBB0EE40AAF0EEB5
:103A300060AA9CB353EC1C2B51EC190B01F08CF9D0
:103A400041EC1C0B53EC1A2B51EC190B01F084F9CF
:103A50009FED210B41EC190B53EC102B51EC1B0B80
:103A600001F07AF953EC192B01F080FA53EC182B82
:103A700001F072F953EC1B2B01F078FA53EC1C2B7C
:103A800001F074FA9DED0A1B53EC112B01F062FA60
:103A9000BDEC0A8B05B041EC100B30BDFFE753ECD9
:103AA0001A2B51EC180B01F057F953EC1C2B00F0BA
:103AB000CBFE53EC192B01F04FF99DED0A1B53EC93
:103AC000112B00F0C1FEE3E7FC87020000000000BC
:103AD000495555555555C5BF000000000000E03F51
:103AE00010B553EC102B51EC100B00F0ADFE41EC77
:103AF000100B10BD000000009FED050B10B553EC3E
:103B0000102B51EC100B00F047FF41EC100B10BDD7
:103B100000000000000000009FED050B10B553EC05
:103B2000102B51EC100B01F017F941EC100B10BDEC
:103B3000000000000000001030380A2801D20120E7
:103B4000704700207047014600BF70472DE9F047DD
:103B50002DED108B9CB006460D4614461F20FE49E5
:103B600008809FEDFE0BB0EE408AF0EE608A9FED7C
:103B7000FD0BB0EE409AF0EE609A9FEDFC0B8DEDE0
:103B8000080B9DED082BB0EE491AF0EE691AB0EE65
:103B9000480AF0EE680A00F0E5FA9FEDF60BB0EE89
:103BA00040AAF0EE60AA9FEDF50BB0EE40BAF0EE41
:103BB00060BA9FEDF40BB0EE40CAF0EE60CA284642
:103BC00001F0B6F89FEDF10B53EC102BCDE900019D
:103BD0009DED000B51EC100B01F0BEF8CDE9040196
:103BE000C6EB0611480001F08CF8CDE902019DED0D
:103BF000040B53EC102B9DED020B51EC100B00F05D
:103C000023FE9FEDDA0B53EC102BCDE906019DED61
:103C1000060B51EC100B01F0A9F9CDE916019FED4F
:103C2000DD0B53EC102B9DED160B51EC100B01F03E
:103C300093F89FEDDA0B53EC102BCDE906019DEDC7
:103C4000060B51EC100B00F0A7FECDE90A019DED2B
:103C50000A0BFFF795FA8DED040B53EC1C2B9DED31
:103C6000040B51EC100B01F077F853EC182BCDE955
:103C700006019DED060B51EC100B00F0E5FDCDE9C2
:103C800012019DED0A0BFFF7DFFA8DED040B53ECEB
:103C90001C2B9DED040B51EC100B01F05DF853EC67
:103CA000192BCDE906019DED060B51EC100B00F030
:103CB000CBFDCDE9100134BB4FF6FF70A64908805B
:103CC000B84890ED000B51EC100B00F0EDFF87B2FF
:103CD000B54890ED000B51EC100B00F0E5FF1FFA1A
:103CE00080F851EC190B00F0DFFF1FFA80F951EC5E
:103CF000180B00F0D9FF1FFA80FA3B4642464946AE
:103D00005046FDF76DF91F20934908809DED100B7B
:103D100051EC100B00F0C8FF87B29DED120B51EC77
:103D2000100B00F0C1FF1FFA80F851EC190B00F0E6
:103D3000BBFF1FFA80F951EC180B00F0B5FF1FFA1A
:103D400080FA3B46424649465046FDF749F93B2C2E
:103D500009D19DED120B944880ED000B9DED100BE9
:103D6000904880ED000B1F207B49088004EB440144
:103D70005A22C2EB410000F0C4FFCDE91A019FEDC9
:103D8000850B53EC102B9DED1A0B51EC100B00F032
:103D9000E3FF9FED820B53EC102BCDE906019DED67
:103DA000060B51EC100B00F0F7FDCDE90E019DED77
:103DB0000E0BFFF7E5F98DED040B53EC1A2B9DED7F
:103DC000040B51EC100B00F0C7FF53EC182BCDE99E
:103DD00006019DED060B51EC100B00F035FD41EC9A
:103DE0001D0B9DED0E0BFFF72FFA8DED040B53EC21
:103DF0001A2B9DED040B51EC100B00F0ADFF53ECB2
:103E0000192BCDE906019DED060B51EC100B00F0CE
:103E10001BFD41EC1E0B51EC1E0B00F045FF87B261
:103E200051EC1D0B00F040FF1FFA80F851EC190B0C
:103E300000F03AFF1FFA80F951EC180B00F034FF44
:103E40001FFA80FA3B46424649465046FDF7C8F8FD
:103E5000642000F01FF94FF6FF703F49088051ECD5
:103E60001E0B00F021FF87B251EC1D0B00F01CFF70
:103E70001FFA80F851EC190B00F016FF1FFA80F9B9
:103E800051EC180B00F010FF1FFA80FA3B46424637
:103E900049465046FDF7A4F81F202F49088005EB3E
:103EA00045015A22C2EB410000F02BFFCDE9180179
:103EB0009FED380B53EC102B9DED180B51EC100BB4
:103EC00000F04AFF9FED350B53EC102BCDE90601B6
:103ED0009DED060B51EC100B00F05EFDCDE90C01E1
:103EE0009DED0C0BFFF74CF98DED040B53EC1B2BE8
:103EF0009DED040B51EC100B00F02EFF53EC182B32
:103F0000CDE906019DED060B51EC100B00F09CFC79
:103F100041EC1F0B9DED0C0BFFF796F98DED040B9B
:103F200053EC1B2B9DED040B51EC100B00F014FF18
:103F300053EC192BCDE906019DED060B51EC100B4E
:103F400000F082FCCDE914019DED140B51EC100B37
:103F500000F0AAFE87B229E05A000020000000000D
:103F600000005E400000000000006440000000000F
:103F7000008056400000000000805140000000001A
:103F800000004E400000000000804640000000009D
:103F90000000E03F4AD8124DFB210940000000001C
:103FA00000806640800000207800002051EC1F0B4C
:103FB00000F07AFE1FFA80F851EC190B00F074FE45
:103FC0001FFA80F951EC180B00F06EFE1FFA80FA10
:103FD0003B46424649465046FDF702F83B2C07D186
:103FE0001A4880ED00FB9DED140B194880ED000B85
:103FF00034BB4FF6FF7017490880154890ED000B51
:1040000051EC100B00F050FE87B2104890ED000B01
:1040100051EC100B00F048FE1FFA80F851EC190B20
:1040200000F042FE1FFA80F951EC180B00F03CFE44
:104030001FFA80FA3B46424649465046FCF7D0FFFD
:104040001CB0BDEC108BBDE8F087000068000020BC
:10405000700000205A00002010B504466FF00400E4
:10406000FEF75AFDE11704EB5171C1F3C701074A8E
:1040700011701046007800EB4001C1EBC0104FF604
:10408000FF7101EAC0000249088010BD5000002005
:104090005200002070B504464FF4077094FBF0F016
:1040A000C6B24FF4077094FBF0F100FB114085B2EB
:1040B00005E04FF4077000F02FF8701EC6B2002E16
:1040C000F7D115B1284600F027F870BD0146114A16
:1040D00012784A434FF0E0235A6100229A611A464F
:1040E000126942F001021A6100BF4FF0E02210692C
:1040F00000F001021AB100F48032002AF5D04FF02E
:10410000E022126922F001024FF0E0231A6100223E
:104110009A617047500000200146114A12884A43B4
:104120004FF0E0235A6100229A611A46126942F068
:1041300001021A6100BF4FF0E022106900F0010295
:104140001AB100F48032002AF5D04FF0E022126953
:1041500022F001024FF0E0231A6100229A617047B9
:10416000520000202DE9F0412DED108BE2B0B0EEB1
:10417000409AF0EE609AB0EE41AAF0EE61AAB0EE7D
:10418000428AF0EE628A9FED8A0BB0EE40CAF0EEF2
:1041900060CA51EC180B00F087FDC5B251EC1A0B48
:1041A00000F082FD86B251EC190B00F07DFD87B264
:1041B0002A4631463846FCF7A7FF51EC1A0B00F0AF
:1041C00073FD85B251EC190B00F06EFD86B2012231
:1041D00029463046FCF798FF00249CE0032094FB1E
:1041E000F0F100FB114030B99FED730BB0EE40BA17
:1041F000F0EE60BA05E09FED720BB0EE40BAF0EE63
:1042000060BA9FED710B53EC102B51EC1C0B00F0BE
:10421000A3FD41EC1D0B9FED6E0B53EC102B00F03A
:10422000BBFBCDE900019DED000BFEF7A9FFB0EE51
:1042300040EAF0EE60EA53EC1B2B51EC180B00F057
:1042400095FE41EC1F0B53EC1E2B00F085FD41EC5D
:104250001D0B53EC192B00F0F7FA4AAA02EBC4022B
:1042600003C29DED000BFEF7EFFFB0EE40EAF0EE6B
:1042700060EA53EC1B2B51EC180B00F077FE41EC7D
:104280001F0B53EC1E2B00F067FD41EC1D0B53EC94
:104290001A2B00F05FFE32AA02EBC40203C29DEDAE
:1042A000000BFEF76DFFB0EE40EAF0EE60EA53EC73
:1042B000182B51EC1E0B00F04FFD41EC1D0B53EC85
:1042C000192B00F0C1FA1AAA02EBC40203C29DED39
:1042D000000BFEF7B9FFB0EE40EAF0EE60EA53ECF7
:1042E000182B51EC1E0B00F037FD41EC1D0B53EC6D
:1042F0001A2B00F02FFE02AA02EBC40203C29FEDAC
:10430000360B53EC102B51EC1C0B00F09DFA41ECDA
:104310001C0B601CC4B20C2CFFF660AF002440E004
:1043200002A800EBC40090ED001BB0EE410AF0EED5
:10433000610A51EC100B00F0B7FC85B21AA800EB33
:10434000C40090ED001BB0EE410AF0EE610A51ECA2
:10435000100B00F0A9FC86B232A800EBC40090ED6F
:10436000001BB0EE410AF0EE610A51EC100B00F0B8
:104370009BFC87B24AA800EBC40090ED001BB0EE96
:10438000410AF0EE610A51EC100B00F08DFC1FFAAF
:1043900080F82B46324639464046FCF721FE601C29
:1043A000C4B20C2CBCDB62B0BDEC108BBDE8F0815C
:1043B0000000000000000000000000000000244099
:1043C00000000000000014404AD8124DFB210940B3
:1043D00000000000008066400000000000003E4039
:1043E0002DE9F0414C480068002867D0FCF7DEFB5F
:1043F0004A480068062862D04948006800EB40003F
:1044000000F12D044748B0F900000A2190FBF1F0BB
:1044100000EB4000C0F1DC05DC2C05DC3C2D03DDAD
:10442000A9B2A0B2FCF734FE6420FFF733FE3C488B
:104430000068401C3A490860084600683C2809D1D9
:10444000FCF7EAF900203649086037480068401C4C
:1044500035490860344800680A2807D133480068A5
:10446000401C3249086000202F4908602F4800682E
:104470003C2807D12E480068401C2D4908600020C8
:104480002A4908602A490968002943D02849086850
:10449000C11700EB91718910A0EB810171B925481A
:1044A0001E49096840F8214023481C49096840F822
:1044B00021501A480068401C184908602AE0FCF79F
:1044C000ABF91D4F1D4E3668761C37F82660B3B227
:1044D000184F1A4E3668761C37F82660B2B2164E60
:1044E000164F3F6836F82760B1B2124E134F3F683F
:1044F00036F82760B0B2FCF773FD10480068401C26
:104500000E49086008460068042803D100200860AE
:1045100002490860BDE8F08124000020040000206A
:104520000C000020300000201000002014000020AB
:1045300018000020B4000020CC000020080000205B
:1045400082B0CDE9000121F0004001909DED000B0B
:1045500002B051EC100B704700BF054A128802F000
:104560004002002AF9D0C2B2014B9A807047000085
:10457000001001404FF4A060FDF772FD1020FFF71E
:104580006BFD4FF4E13000F0FDF8FCF73BFC12212D
:104590006320FDF76FFDFCF7C3F9FCF739FEFDF76B
:1045A000DEFC00210420FEF709F91F20694908807C
:1045B000CEE0FEF7A9FB0020FCF74EFC6649087030
:1045C00008460078002874D008460078012804D0F6
:1045D000022840D003286DD16DE04FF6FF70FCF744
:1045E0008BFC00205D4908605D480068401C5C4908
:1045F00008600846006801280BD15A49086000206D
:104600005949086059490860594908605949086082
:1046100020E05348006802280CD101205549086069
:1046200000205149086052490860504908604D49CE
:1046300008600FE04A48006803280BD101204B496D
:1046400008600020464908604A49086045490860FA
:104650004749086075E00020414908604FF6FF7047
:10466000FCF74AFC3D480068401C3C49086008468D
:10467000006801280CD100203B4908603D490860D2
:1046800038490860394908600120394908600FE05D
:104690003248006802280BD10020304908603549B3
:1046A0000860304908603249086001202F490860DD
:1046B00047E047E044E04FF6FF70FCF71DFC0020A8
:1046C00026490860264908602B480068401C2A4992
:1046D000086021480078032815D1084600680128A1
:1046E00011D1264908602149086025490860002049
:1046F0001D4908601F4908601A4908601C49086084
:10470000FCF754FC1BE014480078032817D11A4822
:104710000068022813D10020184908601549086074
:10472000104908601249086010490860FCF724FC31
:10473000002011490860094908600949086000E043
:1047400000BF00BFFEF7E6FBFEF76EFBFFF748FE7B
:104750002FE700005A000020000000203800002051
:10476000340000201C0000200C0000202C00002041
:1047700024000020200000203C000020A402414230
:104780002800002010B588B0044601210846FDF736
:10479000C1FC01211020FDF7DDFC07220921224880
:1047A000FCF70CFB07220A211F48FCF707FB4FF41C
:1047B000C060069002208DF81C008DF81D000020BE
:1047C0008DF81E0001208DF81F0006A91648FCF781
:1047D000ADFA02940020ADF80C00ADF80E00ADF873
:1047E0001000ADF814000C20ADF8120002A90F481B
:1047F000FEF73EFC01210D48FEF7DEFB012240F2F0
:1048000025510A48FEF70EFC25208DF804000320F0
:104810008DF805008DF8060001208DF8070001A82D
:10482000FDF7E2FB08B010BD00000240001001409F
:1048300081F00041704780F00040704721F0004156
:10484000704720F00040704710B591EA030F48BF51
:1048500083F0004300F19283841A71EB030C05D2BC
:10486000121943EB0C03001B61EB0C01DFF824E190
:104870004FEA1154A4EB135C1EEA430F18BF9EEAE3
:10488000445F73D023EA0E03DCF1200E21EA0451C9
:1048900043F4801332D322FA0CFE10EB0E0023FAFD
:1048A0000CFE41EB0E01CCF1200E03FA0EFE10EBD4
:1048B0000E0051F10001B1F5801FCCF1200E32D273
:1048C00001EB045112FA0EF2BDE8104058BF7047D8
:1048D000401C38BF5FEA420218BF7047002814BF6F
:1048E00020F0010041F100014FEA410313F5001FE0
:1048F00038BF7047A1F1C04100F026BB012A43EB4D
:104900000302ACF1200CDCF11F0E32BF4FF0000EA1
:1049100023FA0CF310EB030041EB0451B4EB115FED
:10492000D0D0A1EB045101F5801149085FEA3000B5
:1049300001EB04510ED350F1000038BF12FA0EFE05
:1049400008D1BDE81040C9E7401C38BF5FEA420209
:10495000CAD1C3E7BDE810404FEA410313F5001F79
:1049600038BF7047A1F1C04100F0EEBA9EEA445F43
:1049700008D011EA5E0FBDE8104004BF01F000410D
:1049800000207047BDE8104070B500F08FFA00BFFE
:1049900064FBBE3E0000E0FF2DE9C04130B4DFF80B
:1049A000A0C23CEA111418BF3CEA131400F0EC80DA
:1049B00081EA03051CEA111444EAD57418BF1CEA05
:1049C000131500F0C780A4EB05044FF0004545EA3D
:1049D000C12145EAC32341EA505143EA525304F14D
:1049E0007F74994204F500344FEAC0204FEAC22296
:1049F00008BF904200F09C804FEA13650FF240160A
:104A0000765D4FEA134506FB05F7C7F1807706FB95
:104A100007F74FEAD737A7FB03687642C8F5803817
:104A2000A7FB06CE38BFA8F1010807FB08E64FF048
:104A3000000EA6FB028CE6FB03CEDCF1000CCEF1EF
:104A4000004E38BFAEF1010EA6FB0C584FF0000728
:104A50004FF00005E6FB0E87A1FB08C6A0FB07CEC2
:104A600016EB0E0645F10005E1FB076515F1E04E7A
:104A70007EBFA4F580345FEA46066D4116F18007DB
:104A800045F100054FEA17274FEA066647EA056732
:104A9000A6F1DE46B6F1805F4FEA15251FD93846EC
:104AA00024F0010C05EBC471BCF1FE6F01EB0C119D
:104AB00002D8F0BCBDE8008124425CBF01F5801E35
:104AC0009EEAC47F02D4F0BCBDE80081244238D401
:104AD000F0BCA1F1C041BDE8004100F035BA4FEA99
:104AE000D22242EA43524FEAD323A7FB02864FEA7F
:104AF000D02040EA415007FB03661EEA0E0F4FEA42
:104B0000D12105FB026658BFA6EB0056B6EB005656
:104B10004FEA520E4EEAC37E18EB0E0E56EB530EC2
:104B2000BDD518EB02085E417F1C55F10005B6E7C4
:104B30004FF480154FF000074FF000064FF00008CB
:104B4000ADE7F0BC4FF0000001F1C04101F00041C1
:104B5000BDE8008111EA0C1F0CEA131500D00CE02F
:104B600013EA0C1F00F025804FF00000F0BC81EA32
:104B7000030101F00041BDE80081F0BCBDE8004147
:104B800081EA030100F0E0B9F0BCBDE8004170B576
:104B900000F08CF9097EFC3E00F007B881EA0301C1
:104BA0004FF0000001F00041704781EA030100F07E
:104BB000CBB9F0BCBDE800414FF00000214970477F
:104BC000FFFDFBF9F7F5F4F2F0EEEDEBE9E8E6E4D2
:104BD000E3E1E0DEDDDBDAD8D7D5D4D3D1D0CFCD59
:104BE000CCCBCAC8C7C6C5C4C2C1C0BFBEBDBCBB92
:104BF000BAB9B8B7B6B5B4B3B2B1B0AFAEADACAB8D
:104C0000AAA9A8A8A7A6A5A4A3A3A2A1A09F9F9E66
:104C10009D9C9C9B9A999998979796959594939318
:104C2000929191908F8F8E8E8D8C8C8B8B8A8989AF
:104C30008888878786858584848383828281818032
:104C40000000FF070000F87F4FEA41034FEA53538B
:104C5000A3F58063D3F11E03C8BFD3F1210C0CDD93
:104C60004FF0004242EAC12242EA505232FA03FCBB
:104C70008CEAE17CACEBE1707047102BC4BF0020E4
:104C8000704703F5787CBCF1FF3F04D06FF0004221
:104C900082EA2100704770B500F008F9499224803B
:104CA00000207047F2E700004FEA1153A3F580633C
:104CB000D3F11E03A8BFD3F1200C08DB4FF0004254
:104CC00042EAC12252EA505232FA03F070470942D6
:104CD0000BD4102BC4BF0020704703F5787CBCF1C7
:104CE000FF3F05D04FF0FF3070474FF00000704796
:104CF00070B500F0DBF800BF4992248000207047B7
:104D0000F0E710F0004248BF4042B0FA80F310FADA
:104D100003F10AD0C3F11D0303F580634FEA41504C
:104D200002EB035202EBD12170474FF000007047B5
:104D3000B0FA80F310FA03F10AD0C3F11D0303F5B2
:104D400080634FEA41504FEA035202EBD121704792
:104D50004FF0000070470000DFF848C170B51CEA52
:104D6000111E1EBF1CEA13159EEA0C0F95EA0C0FCC
:104D700000F06F8081EA030423EA4C134EEAD47EEC
:104D800021EA4C1141F4801143F48013AE44A1FB9D
:104D9000024CA0FB0365AEF17F7E361955EB0C0586
:104DA000A1FB034C4CF10003A0FB021C16EB0C060C
:104DB000654153F10003094218BF46F0010613F4A0
:104DC000007F0BD14FEA03314FEA0530340341EA4B
:104DD000155140EA16506FF003020AE04FEAC32172
:104DE0004FEAC520F40241EA555140EA56506FF0AF
:104DF000020202EB2E4201EB025585EACE710AD087
:104E00005FEA440C18BF24F0004450F1000041F167
:104E1000000120EAD47040F2FE7C624500D270BDF1
:104E2000A84214BF4FF080444FF04044002E08BF0A
:104E30000024BEF1806FA8BFA1F1C041BDE8704061
:104E400080F282804FF0000001F1C04101F000418A
:104E500070479EEA0C0F0CEA131518BF95EA0C0F69
:104E600006D04FF0000081EA030E0EF0004170BD45
:104E700000F01CF88900013E00F007B800F009B806
:104E80004FEA430C5FEA5C5C08D081EA030100F062
:104E90005BB84FEA410C5FEA5C5CF6D14FF0000072
:104EA000014970470000FF070000F87F0EF1020E75
:104EB0002EF0030E5EF8046B364205D4012A43EB54
:104EC000030515F5001F12D8012841EB010C1CF554
:104ED000001F0CD80ED14FEAD17C15F5001F0CEB4A
:104EE0004C0C0CF1020C08BF4CEBD37C04E04FF0EF
:104EF000080C01E04FEAD37C0CEB4C0526FA05F6D2
:104F000006F00706B6F1040C06D20EEB860CBDE8DF
:104F100070404CF0010C6047DFE80CF0090B020216
:104F20004FF000414FF00000A1F5002170BD19467F
:104F30001046012851EB010418BFD4F5001484BFBA
:104F4000002001F0004170BD0808A0F500114FEAF3
:104F50003101704791EA030F10B581F000413FF530
:104F60007BAC83F0004300F009B8000010B591EA73
:104F7000030F48BF83F000433FF56EAC841A71EB1A
:104F8000030C07D212198CF0004C43EB0C03001BEE
:104F900061EB0C01DFF8A4E14FEA1154A4EB135CC0
:104FA0001EEA430F18BF9EEA445F00F0B08023EA78
:104FB0006E03524221EA0451C3EB6E0338BF5B1EFD
:104FC000DCF1200E25D322FA0CFE10EB0E0043FA82
:104FD0000CFE41EB0E01CCF1200E03FA0EFE10EB9D
:104FE0000E0051F10001CCF1200E29D412FA0EF27C
:104FF00001EB0451BDE8104058BF7047401C1CBF76
:10500000B2F1004F704700280CBF491C20F001008E
:10501000704712EB020E43EB030218BF4FF0010E74
:105020004EEA4202ACF1200CDCF11E0E54D943FAD8
:105030000CFE10EB0E0051F1FF31CCF11E0ED5D558
:105040000EF1010E12FA0EFE404141EB010101EB9F
:10505000445C5FEA5C5C10D910EBDE7001EB04513C
:1050600038BFBEF1004FBDE8104018BF70470028A0
:105070000CBF491C20F00100704730D24FEAD42CFD
:1050800011F5001124F400641BD0B1FA81F20B3A3F
:10509000A41AA41ED2F12003914030FA03F319435D
:1050A000904001EBCC71002C01EB0451BDE81040A5
:1050B000A8BF704701F1C0414FF0000001F000416E
:1050C0007047B0FA80F310FA03F100D110BDE41A72
:1050D000173C4805C90AE4E701EB045110BD49102B
:1050E00001EB0451BDE810404FEA300002E04FF000
:1050F000000170474A0008BF0042F8D0B2F5001F17
:1051000028BF704701F000414FF0000070479EEA51
:10511000445F07D011EA5E0FBDE8104004BF0021D4
:1051200000207047BDE8104070B5FFF7BFFE00BF1C
:1051300040DFF63E83F00041104670470000E0FF7C
:105140004FF04070E1EE100A7047000000000000D0
:10515000000000000000000000003F4000000000D0
:105160000000000030004000300040000000090056
:105170000BC03D000BC03D00090018C024407FE07B
:10518000224031800000180024C01B000D803240F6
:10519000018003801C4027401C8007400040100015
:1051A000600000000000000000000000000000009F
:1051B0001F80204040200000402020401F80000031
:1051C0000000090006001F8006000900000004001E
:1051D00004003F8004000400000000100060000094
:1051E00000000000000004000400040004000400AB
:1051F000000000000040000000000000000000204F
:1052000001C006003800400000001F802040204000
:1052100020401F800000000010403FC00040000000
:10522000000018C021402240244018400000108097
:105230002040244024401B80000002000D0011008B
:105240003FC0014000003C80244024402440238093
:1052500000001F80244024403440038000003000C0
:10526000200027C03800200000001B80244024407C
:1052700024401B8000001C0022C0224022401F80CE
:1052800000000000000008400000000000000000D6
:1052900000000460000000000000000004000A009C
:1052A00011002080404009000900090009000900A0
:1052B000000000004040208011000A000400180097
:1052C000200023402400180000001F8020402740B9
:1052D00029401F400000004007C039000F0001C0F6
:1052E000004020403FC0244024401B8000001F801D
:1052F0002040204020403080000020403FC020401F
:1053000020401F80000020403FC024402E4030C07D
:10531000000020403FC024402E00300000000F005D
:105320001080204022403380020020403FC0040013
:1053300004003FC02040204020403FC0204020408B
:1053400000000060202020203FC0200020002040DE
:105350003FC024400B0030C0204020403FC02040D0
:105360000040004000C03FC03C0003C03C003FC0C4
:10537000000020403FC00C4023003FC020001F80A1
:105380002040204020401F80000020403FC024409B
:105390002400180000001F802140214020E01FA0B1
:1053A000000020403FC02440260019C0004018C023
:1053B00024402440224031800000300020403FC083
:1053C00020403000000020003F80004000403F802F
:1053D000200020003E0001C00700380020003800F7
:1053E00007C03C0007C038000000204039C006005C
:1053F00039C0204000002000384007C0384020005D
:105400000000304021C02640384020C0000000008D
:1054100000007FE0402040200000000070000C00F1
:105420000380004000000000402040207FE000009A
:1054300000000000200040002000000000000010DC
:1054400000100010001000100010000000004000CC
:10545000000000000000000002800540054003C07D
:10546000004020003FC004400440038000000000D2
:105470000380044004400640000000000380044014
:1054800024403FC000400000038005400540034029
:105490000000000004401FC0244024402000000001
:1054A00002E0055005500650042020403FC0044053
:1054B000040003C000400000044027C0004000007A
:1054C000000000100010041027E000000000204041
:1054D0003FC00140070004C00440204020403FC0BE
:1054E00000400040000007C0040007C0040003C0E3
:1054F0000000044007C00440040003C00040000056
:1055000003800440044003800000041007F00450AE
:10551000044003800000000003800440045007F0B2
:105520000010044007C00240040004000000000016
:1055300006400540054004C00000000004001F8034
:10554000044000400000040007800040044007C001
:1055500000400400070004C00180060004000600AB
:1055600001C0070001C006000000044006C00100A1
:1055700006C0044000000410071004E0018006008B
:1055800004000000044005C0064004400000000084
:10559000000004007BE0402000000000000000004C
:1055A000FFF000000000000040207BE0040000004D
:1055B000000040008000400020002000400000006B
:1055C00000000000000000000000000000000000DB
:1055D000000000001FCC000C0000000000000000D4
:1055E0000800300060000800300060000000022069
:1055F00003FC1E20022003FC1E20022000000000ED
:105600000E1811043FFF10840C78000000000F00FA
:1056100010840F3800C007781884007800000078E4
:105620000F8410C411240E9800E4008400080800C0
:105630006800700000000000000000000000000092
:105640000000000007E018182004400200000000DD
:1056500040022004181807E000000000000002408B
:10566000024001800FF001800240024000000080F3
:10567000008000800FF800800080008000000001A2
:10568000000D000E000000000000000000000000FF
:10569000008000800080008000800080008000008A
:1056A000000C000C000000000000000000000000E2
:1056B00000060018006001800600180020000000AD
:1056C00007F0080810041004080807F000000000A4
:1056D000080408041FFC000400040000000000008F
:1056E0000E0C10141024104411840E0C0000000045
:1056F0000C1810041104110412880C700000000032
:1057000000E00320042408241FFC00240000000003
:105710001F981084110411041088107000000000FC
:1057200007F00888110411041888007000000000B8
:105730001C00100010FC13001C00100000000000F2
:105740000E3811441084108411440E3800000000FB
:105750000700088C10441044088807F0000000007F
:1057600000000000030C030C00000000000000001B
:105770000000000101060000000000000000000021
:1057800000800140022004100808100400000220DC
:10579000022002200220022002200220000000003D
:1057A00010040808041002200140008000000000DE
:1057B0000E001200100C106C10800F00000003E0AF
:1057C0000C1813E4142417C4082807D000000004A0
:1057D000003C03C41C40074000E4001C000410040B
:1057E0001FFC1104110411040E880070000003E076
:1057F0000C1810041004100410081C1000001004F1
:105800001FFC100410041004080807F00000100426
:105810001FFC1104110417C4100408180000100420
:105820001FFC1104110017C010000800000003E065
:105830000C181004100410441C78004000001004E0
:105840001FFC10840080008010841FFC10040000E6
:10585000100410041FFC10041004000000000003DA
:105860000001100110011FFE1000100000001004C4
:105870001FFC110403801464181C100400001004A1
:105880001FFC1004000400040004000C00001004BD
:105890001FFC1F0000FC1F001FFC10040000100470
:1058A0001FFC0C04030000E010181FFC100007F0A0
:1058B0000808100410041004080807F00000100481
:1058C0001FFC10841080108010800F00000007F073
:1058D000081810241024101C080A07F200001004F5
:1058E0001FFC1104110011C011300E0C0004000047
:1058F0000E1C11041084108410441C380000180081
:10590000100010041FFC100410001800000010000C
:105910001FF810040004000410041FF81000100009
:105920001E0011E0001C007013801C0010001FC03E
:10593000103C00E01F0000E0103C1FC000001004FD
:10594000180C163401C001C01634180C10041000D5
:105950001C00130400FC13041C00100000000804C9
:10596000101C1064108413041C04101800000000A4
:10597000000000007FFE40024002400200000000E4
:1059800030000C0003800060001C000300000000D9
:105990004002400240027FFE0000000000000000C4
:1059A00000002000400040004000200000000001F6
:1059B00000010001000100010001000100010000E0
:1059C0004000400020000000000000000000000037
:1059D0000098012401440144014400FC000410002B
:1059E0001FFC008801040104008800700000000012
:1059F0000070008801040104010400880000000018
:105A0000007000880104010411081FFC000400005C
:105A100000F8014401440144014400C800000000B2
:105A2000010401040FFC110411041100180000000E
:105A300000D601290129012901C90106000010042D
:105A40001FFC008401000100010400FC00040000B0
:105A50000104190419FC0004000400000000000007
:105A6000000300010101190119FE000000001004EB
:105A70001FFC0024004001B4010C010400000000E0
:105A8000100410041FFC00040004000000000104C6
:105A900001FC0104010001FC0104010000FC0104FF
:105AA00001FC008401000100010400FC000400006E
:105AB00000F8010401040104010400F800000101E0
:105AC00001FF00850104010400880070000000004F
:105AD0000070008801040104010501FF00010104B8
